{
  "contractName": "Marketplace",
  "abi": [
    {
      "constant": true,
      "inputs": [],
      "name": "name",
      "outputs": [
        {
          "name": "",
          "type": "string"
        }
      ],
      "payable": false,
      "stateMutability": "view",
      "type": "function",
      "signature": "0x06fdde03"
    },
    {
      "constant": true,
      "inputs": [],
      "name": "tokensSold",
      "outputs": [
        {
          "name": "",
          "type": "uint256"
        }
      ],
      "payable": false,
      "stateMutability": "view",
      "type": "function",
      "signature": "0x518ab2a8"
    },
    {
      "constant": true,
      "inputs": [],
      "name": "tokenContract",
      "outputs": [
        {
          "name": "",
          "type": "address"
        }
      ],
      "payable": false,
      "stateMutability": "view",
      "type": "function",
      "signature": "0x55a373d6"
    },
    {
      "constant": true,
      "inputs": [
        {
          "name": "",
          "type": "uint256"
        }
      ],
      "name": "products",
      "outputs": [
        {
          "name": "id",
          "type": "uint256"
        },
        {
          "name": "name",
          "type": "string"
        },
        {
          "name": "price",
          "type": "uint256"
        },
        {
          "name": "owner",
          "type": "address"
        },
        {
          "name": "purchased",
          "type": "bool"
        }
      ],
      "payable": false,
      "stateMutability": "view",
      "type": "function",
      "signature": "0x7acc0b20"
    },
    {
      "constant": true,
      "inputs": [],
      "name": "tokenPrice",
      "outputs": [
        {
          "name": "",
          "type": "uint256"
        }
      ],
      "payable": false,
      "stateMutability": "view",
      "type": "function",
      "signature": "0x7ff9b596"
    },
    {
      "constant": true,
      "inputs": [],
      "name": "productCount",
      "outputs": [
        {
          "name": "",
          "type": "uint256"
        }
      ],
      "payable": false,
      "stateMutability": "view",
      "type": "function",
      "signature": "0xe0f6ef87"
    },
    {
      "inputs": [
        {
          "name": "_tokenContract",
          "type": "address"
        },
        {
          "name": "_tokenPrice",
          "type": "uint256"
        }
      ],
      "payable": false,
      "stateMutability": "nonpayable",
      "type": "constructor",
      "signature": "constructor"
    },
    {
      "anonymous": false,
      "inputs": [
        {
          "indexed": false,
          "name": "id",
          "type": "uint256"
        },
        {
          "indexed": false,
          "name": "name",
          "type": "string"
        },
        {
          "indexed": false,
          "name": "price",
          "type": "uint256"
        },
        {
          "indexed": false,
          "name": "owner",
          "type": "address"
        },
        {
          "indexed": false,
          "name": "purchased",
          "type": "bool"
        }
      ],
      "name": "ProductCreated",
      "type": "event",
      "signature": "0xbc59c0c8165864dcceb377dd07d8f431d4303f8e501cb0a0374a10cc68d71836"
    },
    {
      "anonymous": false,
      "inputs": [
        {
          "indexed": false,
          "name": "id",
          "type": "uint256"
        },
        {
          "indexed": false,
          "name": "name",
          "type": "string"
        },
        {
          "indexed": false,
          "name": "price",
          "type": "uint256"
        },
        {
          "indexed": false,
          "name": "owner",
          "type": "address"
        },
        {
          "indexed": false,
          "name": "purchased",
          "type": "bool"
        }
      ],
      "name": "ProductPurchased",
      "type": "event",
      "signature": "0x79558d0d7d4d900e2f15c4cc0a665f1acdbe415e44de900ecdd1e5bf12b56f4e"
    },
    {
      "constant": false,
      "inputs": [
        {
          "name": "_name",
          "type": "string"
        },
        {
          "name": "_price",
          "type": "uint256"
        }
      ],
      "name": "createProduct",
      "outputs": [],
      "payable": false,
      "stateMutability": "nonpayable",
      "type": "function",
      "signature": "0xe9300c6c"
    },
    {
      "constant": false,
      "inputs": [
        {
          "name": "_id",
          "type": "uint256"
        }
      ],
      "name": "purchaseProduct",
      "outputs": [],
      "payable": true,
      "stateMutability": "payable",
      "type": "function",
      "signature": "0x38e76a03"
    },
    {
      "constant": false,
      "inputs": [
        {
          "name": "_id",
          "type": "uint256"
        }
      ],
      "name": "getSellerAddress",
      "outputs": [
        {
          "name": "sellerAddress",
          "type": "address"
        }
      ],
      "payable": false,
      "stateMutability": "nonpayable",
      "type": "function",
      "signature": "0xa675364d"
    }
  ],
  "bytecode": "0x6080604052600060015534801561001557600080fd5b506040516040806110fd8339810180604052604081101561003557600080fd5b8101908080519060200190929190805190602001909291905050506040805190810160405280601281526020017f526573756d65204d61726b6574706c61636500000000000000000000000000008152506000908051906020019061009b92919061012c565b5033600360006101000a81548173ffffffffffffffffffffffffffffffffffffffff021916908373ffffffffffffffffffffffffffffffffffffffff16021790555081600460006101000a81548173ffffffffffffffffffffffffffffffffffffffff021916908373ffffffffffffffffffffffffffffffffffffffff1602179055508060058190555050506101d1565b828054600181600116156101000203166002900490600052602060002090601f016020900481019282601f1061016d57805160ff191683800117855561019b565b8280016001018555821561019b579182015b8281111561019a57825182559160200191906001019061017f565b5b5090506101a891906101ac565b5090565b6101ce91905b808211156101ca5760008160009055506001016101b2565b5090565b90565b610f1d806101e06000396000f3fe608060405260043610610099576000357c0100000000000000000000000000000000000000000000000000000000900463ffffffff16806306fdde031461009e57806338e76a031461012e578063518ab2a81461015c57806355a373d6146101875780637acc0b20146101de5780637ff9b596146102de578063a675364d14610309578063e0f6ef8714610384578063e9300c6c146103af575b600080fd5b3480156100aa57600080fd5b506100b3610481565b6040518080602001828103825283818151815260200191508051906020019080838360005b838110156100f35780820151818401526020810190506100d8565b50505050905090810190601f1680156101205780820380516001836020036101000a031916815260200191505b509250505060405180910390f35b61015a6004803603602081101561014457600080fd5b810190808035906020019092919050505061051f565b005b34801561016857600080fd5b50610171610948565b6040518082815260200191505060405180910390f35b34801561019357600080fd5b5061019c61094e565b604051808273ffffffffffffffffffffffffffffffffffffffff1673ffffffffffffffffffffffffffffffffffffffff16815260200191505060405180910390f35b3480156101ea57600080fd5b506102176004803603602081101561020157600080fd5b8101908080359060200190929190505050610974565b60405180868152602001806020018581526020018473ffffffffffffffffffffffffffffffffffffffff1673ffffffffffffffffffffffffffffffffffffffff16815260200183151515158152602001828103825286818151815260200191508051906020019080838360005b8381101561029f578082015181840152602081019050610284565b50505050905090810190601f1680156102cc5780820380516001836020036101000a031916815260200191505b50965050505050505060405180910390f35b3480156102ea57600080fd5b506102f3610a6f565b6040518082815260200191505060405180910390f35b34801561031557600080fd5b506103426004803603602081101561032c57600080fd5b8101908080359060200190929190505050610a75565b604051808273ffffffffffffffffffffffffffffffffffffffff1673ffffffffffffffffffffffffffffffffffffffff16815260200191505060405180910390f35b34801561039057600080fd5b50610399610bda565b6040518082815260200191505060405180910390f35b3480156103bb57600080fd5b5061047f600480360360408110156103d257600080fd5b81019080803590602001906401000000008111156103ef57600080fd5b82018360208201111561040157600080fd5b8035906020019184600183028401116401000000008311171561042357600080fd5b91908080601f016020809104026020016040519081016040528093929190818152602001838380828437600081840152601f19601f82011690508083019250505050505050919291929080359060200190929190505050610be0565b005b60008054600181600116156101000203166002900480601f0160208091040260200160405190810160405280929190818152602001828054600181600116156101000203166002900480156105175780601f106104ec57610100808354040283529160200191610517565b820191906000526020600020905b8154815290600101906020018083116104fa57829003601f168201915b505050505081565b6002600082815260200190815260200160002060030160009054906101000a900473ffffffffffffffffffffffffffffffffffffffff168073ffffffffffffffffffffffffffffffffffffffff163373ffffffffffffffffffffffffffffffffffffffff161415151561059157600080fd5b6002600083815260200190815260200160002060020154806064348115156105b557fe5b04101515156105c357600080fd5b6105cb610e04565b6002600085815260200190815260200160002060a0604051908101604052908160008201548152602001600182018054600181600116156101000203166002900480601f01602080910402602001604051908101604052809291908181526020018280546001816001161561010002031660029004801561068d5780601f106106625761010080835404028352916020019161068d565b820191906000526020600020905b81548152906001019060200180831161067057829003601f168201915b50505050508152602001600282015481526020016003820160009054906101000a900473ffffffffffffffffffffffffffffffffffffffff1673ffffffffffffffffffffffffffffffffffffffff1673ffffffffffffffffffffffffffffffffffffffff1681526020016003820160149054906101000a900460ff1615151515815250509050600081606001519050600082600001511180156107365750600154826000015111155b151561074157600080fd5b816080015115151561075257600080fd5b33826060019073ffffffffffffffffffffffffffffffffffffffff16908173ffffffffffffffffffffffffffffffffffffffff1681525050600182608001901515908115158152505081600260008781526020019081526020016000206000820151816000015560208201518160010190805190602001906107d5929190610e4c565b506040820151816002015560608201518160030160006101000a81548173ffffffffffffffffffffffffffffffffffffffff021916908373ffffffffffffffffffffffffffffffffffffffff16021790555060808201518160030160146101000a81548160ff0219169083151502179055509050507f79558d0d7d4d900e2f15c4cc0a665f1acdbe415e44de900ecdd1e5bf12b56f4e6001548360200151846040015133600160405180868152602001806020018581526020018473ffffffffffffffffffffffffffffffffffffffff1673ffffffffffffffffffffffffffffffffffffffff16815260200183151515158152602001828103825286818151815260200191508051906020019080838360005b838110156109035780820151818401526020810190506108e8565b50505050905090810190601f1680156109305780820380516001836020036101000a031916815260200191505b50965050505050505060405180910390a15050505050565b60065481565b600460009054906101000a900473ffffffffffffffffffffffffffffffffffffffff1681565b6002602052806000526040600020600091509050806000015490806001018054600181600116156101000203166002900480601f016020809104026020016040519081016040528092919081815260200182805460018160011615610100020316600290048015610a265780601f106109fb57610100808354040283529160200191610a26565b820191906000526020600020905b815481529060010190602001808311610a0957829003601f168201915b5050505050908060020154908060030160009054906101000a900473ffffffffffffffffffffffffffffffffffffffff16908060030160149054906101000a900460ff16905085565b60055481565b6000610a7f610e04565b6002600084815260200190815260200160002060a0604051908101604052908160008201548152602001600182018054600181600116156101000203166002900480601f016020809104026020016040519081016040528092919081815260200182805460018160011615610100020316600290048015610b415780601f10610b1657610100808354040283529160200191610b41565b820191906000526020600020905b815481529060010190602001808311610b2457829003601f168201915b50505050508152602001600282015481526020016003820160009054906101000a900473ffffffffffffffffffffffffffffffffffffffff1673ffffffffffffffffffffffffffffffffffffffff1673ffffffffffffffffffffffffffffffffffffffff1681526020016003820160149054906101000a900460ff16151515158152505090506000816060015190508092505050919050565b60015481565b818160008251118015610bf35750600081115b1515610bfe57600080fd5b60016000815480929190600101919050555060a0604051908101604052806001548152602001858152602001606485811515610c3657fe5b0481526020013373ffffffffffffffffffffffffffffffffffffffff16815260200160001515815250600260006001548152602001908152602001600020600082015181600001556020820151816001019080519060200190610c9a929190610e4c565b506040820151816002015560608201518160030160006101000a81548173ffffffffffffffffffffffffffffffffffffffff021916908373ffffffffffffffffffffffffffffffffffffffff16021790555060808201518160030160146101000a81548160ff0219169083151502179055509050507fbc59c0c8165864dcceb377dd07d8f431d4303f8e501cb0a0374a10cc68d71836600154858533600060405180868152602001806020018581526020018473ffffffffffffffffffffffffffffffffffffffff1673ffffffffffffffffffffffffffffffffffffffff16815260200183151515158152602001828103825286818151815260200191508051906020019080838360005b83811015610dc0578082015181840152602081019050610da5565b50505050905090810190601f168015610ded5780820380516001836020036101000a031916815260200191505b50965050505050505060405180910390a150505050565b60a060405190810160405280600081526020016060815260200160008152602001600073ffffffffffffffffffffffffffffffffffffffff1681526020016000151581525090565b828054600181600116156101000203166002900490600052602060002090601f016020900481019282601f10610e8d57805160ff1916838001178555610ebb565b82800160010185558215610ebb579182015b82811115610eba578251825591602001919060010190610e9f565b5b509050610ec89190610ecc565b5090565b610eee91905b80821115610eea576000816000905550600101610ed2565b5090565b9056fea165627a7a723058208eb56a440c77e2199c18feb7af1b83f48a1c192735a3bb3f07558bcee69c8a870029",
  "source": "pragma solidity >=0.4.21 <0.6.0;\nimport \"./InfinityToken.sol\";\n\ncontract Marketplace {\n    string public name;\n    uint public productCount = 0;\n    mapping(uint => Product) public products;\n    address admin;\n    InfinityToken public tokenContract;\n    uint256 public tokenPrice;\n    uint256 public tokensSold;\n    \n\n    struct Product {\n        uint id;\n        string name;\n        uint256 price;\n        address payable owner;\n        bool purchased;\n    }\n\n    event ProductCreated(\n        uint id,\n        string name,\n        uint256 price,\n        address payable owner,\n        bool purchased\n    );\n\n    event ProductPurchased(\n        uint id,\n        string name,\n        uint256 price,\n        address payable owner,\n        bool purchased\n    );\n\n    constructor(InfinityToken _tokenContract, uint256 _tokenPrice) public {\n        name = \"Resume Marketplace\";\n        admin = msg.sender;\n        tokenContract = _tokenContract;\n        tokenPrice = _tokenPrice;\n        \n    }\n\n    modifier onlyBuyer(address owner) {\n      require(msg.sender != owner);\n      _;\n    }\n\n    modifier checkBuyingPrice(uint price) {\n      require(msg.value/100 >= price);\n      _;\n    }\n\n    modifier checkvalidProduct(string  memory _name, uint _price) {\n      require(bytes(_name).length > 0 && _price > 0);\n      _;\n    }\n\n    function multiply(uint x, uint y) internal pure returns (uint z) {\n        require(y == 0 || (z = x * y) / y == x);\n    }\n\n    function createProduct(string memory _name, uint256 _price) public checkvalidProduct(_name,_price) {\n        productCount ++;\n        products[productCount] = Product(productCount, _name, _price/100, msg.sender, false);\n        emit ProductCreated(productCount, _name, _price, msg.sender, false);\n    }\n\n    function purchaseProduct(uint _id) public payable onlyBuyer(products[_id].owner) checkBuyingPrice(products[_id].price){\n        Product memory _product = products[_id];\n        //require(msg.value == multiply(_product.price, tokenPrice));\n        //require(tokenContract.balanceOf(msg.sender) >= _product.price);\n        address payable _seller = _product.owner;\n        require(_product.id > 0 && _product.id <= productCount);\n        require(!_product.purchased);\n        _product.owner = msg.sender;\n        _product.purchased = true;\n        products[_id] = _product;\n        //tokenContract.transfer(_seller, _product.price);\n        // address(_seller).transfer(msg.value);\n        emit ProductPurchased(productCount, _product.name, _product.price, msg.sender, true);\n    }\n\n    function getSellerAddress(uint _id) public returns(address sellerAddress){\n        Product memory _product = products[_id];\n        //require(msg.value == multiply(_product.price, tokenPrice));\n        //require(tokenContract.balanceOf(msg.sender) >= _product.price);\n        address _seller = _product.owner;\n        return _seller;\n        //tokenContract.transfer(_seller, _product.price);\n        // address(_seller).transfer(msg.value);\n    }\n}\n",
  "sourcePath": "/Users/stevecmathews/Desktop/untitled folder/marketplace/src/contracts/Marketplace.sol",
  "compiler": {
    "name": "solc",
    "version": "0.5.0+commit.1d4f565a.Emscripten.clang"
  },
  "schemaVersion": "3.0.2",
  "updatedAt": "2022-05-09T00:54:13.124Z",
  "devdoc": {
    "methods": {}
  },
  "userdoc": {
    "methods": {}
  }
}